{
  "_format": "hh-sol-artifact-1",
  "contractName": "BaseBuilderShowcase",
  "sourceName": "contracts/BaseBuilderShowcase.sol",
  "contractAddress": "0x4fd74D95eD6d7B1A1EE26EC66e616e60ffE16733",
  "network": "base-sepolia",
  "chainId": 84532,
  "abi": [
    {
      "inputs": [],
      "stateMutability": "nonpayable",
      "type": "constructor"
    },
    {
      "anonymous": false,
      "inputs": [
        {
          "indexed": true,
          "internalType": "address",
          "name": "builder",
          "type": "address"
        }
      ],
      "name": "BuilderVerified",
      "type": "event"
    },
    {
      "anonymous": false,
      "inputs": [
        {
          "indexed": true,
          "internalType": "uint256",
          "name": "reviewId",
          "type": "uint256"
        },
        {
          "indexed": true,
          "internalType": "address",
          "name": "voter",
          "type": "address"
        }
      ],
      "name": "HelpfulVoteAdded",
      "type": "event"
    },
    {
      "anonymous": false,
      "inputs": [
        {
          "indexed": true,
          "internalType": "address",
          "name": "previousOwner",
          "type": "address"
        },
        {
          "indexed": true,
          "internalType": "address",
          "name": "newOwner",
          "type": "address"
        }
      ],
      "name": "OwnershipTransferred",
      "type": "event"
    },
    {
      "anonymous": false,
      "inputs": [
        {
          "indexed": true,
          "internalType": "uint256",
          "name": "projectId",
          "type": "uint256"
        }
      ],
      "name": "ProjectFeatured",
      "type": "event"
    },
    {
      "anonymous": false,
      "inputs": [
        {
          "indexed": true,
          "internalType": "uint256",
          "name": "projectId",
          "type": "uint256"
        },
        {
          "indexed": true,
          "internalType": "address",
          "name": "builder",
          "type": "address"
        },
        {
          "indexed": false,
          "internalType": "string",
          "name": "name",
          "type": "string"
        }
      ],
      "name": "ProjectSubmitted",
      "type": "event"
    },
    {
      "anonymous": false,
      "inputs": [
        {
          "indexed": true,
          "internalType": "uint256",
          "name": "reviewId",
          "type": "uint256"
        },
        {
          "indexed": true,
          "internalType": "uint256",
          "name": "projectId",
          "type": "uint256"
        },
        {
          "indexed": true,
          "internalType": "address",
          "name": "reviewer",
          "type": "address"
        },
        {
          "indexed": false,
          "internalType": "uint8",
          "name": "rating",
          "type": "uint8"
        }
      ],
      "name": "ReviewSubmitted",
      "type": "event"
    },
    {
      "inputs": [],
      "name": "REVIEW_REWARD",
      "outputs": [
        {
          "internalType": "uint256",
          "name": "",
          "type": "uint256"
        }
      ],
      "stateMutability": "view",
      "type": "function"
    },
    {
      "inputs": [],
      "name": "SUBMISSION_FEE",
      "outputs": [
        {
          "internalType": "uint256",
          "name": "",
          "type": "uint256"
        }
      ],
      "stateMutability": "view",
      "type": "function"
    },
    {
      "inputs": [
        {
          "internalType": "uint256",
          "name": "",
          "type": "uint256"
        }
      ],
      "name": "allProjectIds",
      "outputs": [
        {
          "internalType": "uint256",
          "name": "",
          "type": "uint256"
        }
      ],
      "stateMutability": "view",
      "type": "function"
    },
    {
      "inputs": [
        {
          "internalType": "address",
          "name": "",
          "type": "address"
        }
      ],
      "name": "builders",
      "outputs": [
        {
          "internalType": "address",
          "name": "builderAddress",
          "type": "address"
        },
        {
          "internalType": "string",
          "name": "name",
          "type": "string"
        },
        {
          "internalType": "string",
          "name": "bio",
          "type": "string"
        },
        {
          "internalType": "string",
          "name": "socialHandle",
          "type": "string"
        },
        {
          "internalType": "uint256",
          "name": "totalProjects",
          "type": "uint256"
        },
        {
          "internalType": "bool",
          "name": "isVerified",
          "type": "bool"
        }
      ],
      "stateMutability": "view",
      "type": "function"
    },
    {
      "inputs": [
        {
          "internalType": "uint256",
          "name": "_projectId",
          "type": "uint256"
        }
      ],
      "name": "deactivateProject",
      "outputs": [],
      "stateMutability": "nonpayable",
      "type": "function"
    },
    {
      "inputs": [
        {
          "internalType": "uint256",
          "name": "_reviewId",
          "type": "uint256"
        }
      ],
      "name": "deactivateReview",
      "outputs": [],
      "stateMutability": "nonpayable",
      "type": "function"
    },
    {
      "inputs": [
        {
          "internalType": "uint256",
          "name": "_projectId",
          "type": "uint256"
        }
      ],
      "name": "featureProject",
      "outputs": [],
      "stateMutability": "nonpayable",
      "type": "function"
    },
    {
      "inputs": [],
      "name": "getAllProjects",
      "outputs": [
        {
          "internalType": "uint256[]",
          "name": "",
          "type": "uint256[]"
        }
      ],
      "stateMutability": "view",
      "type": "function"
    },
    {
      "inputs": [
        {
          "internalType": "address",
          "name": "_builder",
          "type": "address"
        }
      ],
      "name": "getBuilderProjects",
      "outputs": [
        {
          "internalType": "uint256[]",
          "name": "",
          "type": "uint256[]"
        }
      ],
      "stateMutability": "view",
      "type": "function"
    },
    {
      "inputs": [
        {
          "internalType": "uint256",
          "name": "_projectId",
          "type": "uint256"
        }
      ],
      "name": "getProject",
      "outputs": [
        {
          "components": [
            {
              "internalType": "uint256",
              "name": "id",
              "type": "uint256"
            },
            {
              "internalType": "string",
              "name": "name",
              "type": "string"
            },
            {
              "internalType": "string",
              "name": "description",
              "type": "string"
            },
            {
              "internalType": "string",
              "name": "category",
              "type": "string"
            },
            {
              "internalType": "string",
              "name": "url",
              "type": "string"
            },
            {
              "internalType": "string",
              "name": "imageUrl",
              "type": "string"
            },
            {
              "internalType": "address",
              "name": "builder",
              "type": "address"
            },
            {
              "internalType": "uint256",
              "name": "timestamp",
              "type": "uint256"
            },
            {
              "internalType": "bool",
              "name": "isActive",
              "type": "bool"
            },
            {
              "internalType": "uint256",
              "name": "totalRating",
              "type": "uint256"
            },
            {
              "internalType": "uint256",
              "name": "reviewCount",
              "type": "uint256"
            }
          ],
          "internalType": "struct BaseBuilderShowcase.Project",
          "name": "project",
          "type": "tuple"
        },
        {
          "internalType": "uint256",
          "name": "averageRating",
          "type": "uint256"
        }
      ],
      "stateMutability": "view",
      "type": "function"
    },
    {
      "inputs": [
        {
          "internalType": "uint256",
          "name": "_projectId",
          "type": "uint256"
        }
      ],
      "name": "getProjectReviews",
      "outputs": [
        {
          "internalType": "uint256[]",
          "name": "",
          "type": "uint256[]"
        }
      ],
      "stateMutability": "view",
      "type": "function"
    },
    {
      "inputs": [
        {
          "internalType": "string",
          "name": "_category",
          "type": "string"
        }
      ],
      "name": "getProjectsByCategory",
      "outputs": [
        {
          "internalType": "uint256[]",
          "name": "",
          "type": "uint256[]"
        }
      ],
      "stateMutability": "view",
      "type": "function"
    },
    {
      "inputs": [
        {
          "internalType": "uint256",
          "name": "_limit",
          "type": "uint256"
        }
      ],
      "name": "getTopRatedProjects",
      "outputs": [
        {
          "internalType": "uint256[]",
          "name": "topProjects",
          "type": "uint256[]"
        }
      ],
      "stateMutability": "view",
      "type": "function"
    },
    {
      "inputs": [],
      "name": "getTotalProjects",
      "outputs": [
        {
          "internalType": "uint256",
          "name": "",
          "type": "uint256"
        }
      ],
      "stateMutability": "view",
      "type": "function"
    },
    {
      "inputs": [],
      "name": "getTotalReviews",
      "outputs": [
        {
          "internalType": "uint256",
          "name": "",
          "type": "uint256"
        }
      ],
      "stateMutability": "view",
      "type": "function"
    },
    {
      "inputs": [
        {
          "internalType": "address",
          "name": "",
          "type": "address"
        },
        {
          "internalType": "uint256",
          "name": "",
          "type": "uint256"
        }
      ],
      "name": "hasReviewed",
      "outputs": [
        {
          "internalType": "bool",
          "name": "",
          "type": "bool"
        }
      ],
      "stateMutability": "view",
      "type": "function"
    },
    {
      "inputs": [
        {
          "internalType": "address",
          "name": "",
          "type": "address"
        },
        {
          "internalType": "uint256",
          "name": "",
          "type": "uint256"
        }
      ],
      "name": "helpfulVotes",
      "outputs": [
        {
          "internalType": "bool",
          "name": "",
          "type": "bool"
        }
      ],
      "stateMutability": "view",
      "type": "function"
    },
    {
      "inputs": [],
      "name": "owner",
      "outputs": [
        {
          "internalType": "address",
          "name": "",
          "type": "address"
        }
      ],
      "stateMutability": "view",
      "type": "function"
    },
    {
      "inputs": [],
      "name": "pause",
      "outputs": [],
      "stateMutability": "nonpayable",
      "type": "function"
    },
    {
      "inputs": [
        {
          "internalType": "uint256",
          "name": "",
          "type": "uint256"
        },
        {
          "internalType": "uint256",
          "name": "",
          "type": "uint256"
        }
      ],
      "name": "projectReviews",
      "outputs": [
        {
          "internalType": "uint256",
          "name": "",
          "type": "uint256"
        }
      ],
      "stateMutability": "view",
      "type": "function"
    },
    {
      "inputs": [
        {
          "internalType": "uint256",
          "name": "",
          "type": "uint256"
        }
      ],
      "name": "projects",
      "outputs": [
        {
          "internalType": "uint256",
          "name": "id",
          "type": "uint256"
        },
        {
          "internalType": "string",
          "name": "name",
          "type": "string"
        },
        {
          "internalType": "string",
          "name": "description",
          "type": "string"
        },
        {
          "internalType": "string",
          "name": "category",
          "type": "string"
        },
        {
          "internalType": "string",
          "name": "url",
          "type": "string"
        },
        {
          "internalType": "string",
          "name": "imageUrl",
          "type": "string"
        },
        {
          "internalType": "address",
          "name": "builder",
          "type": "address"
        },
        {
          "internalType": "uint256",
          "name": "timestamp",
          "type": "uint256"
        },
        {
          "internalType": "bool",
          "name": "isActive",
          "type": "bool"
        },
        {
          "internalType": "uint256",
          "name": "totalRating",
          "type": "uint256"
        },
        {
          "internalType": "uint256",
          "name": "reviewCount",
          "type": "uint256"
        }
      ],
      "stateMutability": "view",
      "type": "function"
    },
    {
      "inputs": [
        {
          "internalType": "string",
          "name": "",
          "type": "string"
        },
        {
          "internalType": "uint256",
          "name": "",
          "type": "uint256"
        }
      ],
      "name": "projectsByCategory",
      "outputs": [
        {
          "internalType": "uint256",
          "name": "",
          "type": "uint256"
        }
      ],
      "stateMutability": "view",
      "type": "function"
    },
    {
      "inputs": [],
      "name": "renounceOwnership",
      "outputs": [],
      "stateMutability": "nonpayable",
      "type": "function"
    },
    {
      "inputs": [
        {
          "internalType": "uint256",
          "name": "",
          "type": "uint256"
        }
      ],
      "name": "reviews",
      "outputs": [
        {
          "internalType": "uint256",
          "name": "id",
          "type": "uint256"
        },
        {
          "internalType": "uint256",
          "name": "projectId",
          "type": "uint256"
        },
        {
          "internalType": "address",
          "name": "reviewer",
          "type": "address"
        },
        {
          "internalType": "uint8",
          "name": "rating",
          "type": "uint8"
        },
        {
          "internalType": "string",
          "name": "comment",
          "type": "string"
        },
        {
          "internalType": "uint256",
          "name": "timestamp",
          "type": "uint256"
        },
        {
          "internalType": "uint256",
          "name": "helpfulVotes",
          "type": "uint256"
        },
        {
          "internalType": "bool",
          "name": "isActive",
          "type": "bool"
        }
      ],
      "stateMutability": "view",
      "type": "function"
    },
    {
      "inputs": [
        {
          "internalType": "string",
          "name": "_name",
          "type": "string"
        },
        {
          "internalType": "string",
          "name": "_description",
          "type": "string"
        },
        {
          "internalType": "string",
          "name": "_category",
          "type": "string"
        },
        {
          "internalType": "string",
          "name": "_url",
          "type": "string"
        },
        {
          "internalType": "string",
          "name": "_imageUrl",
          "type": "string"
        },
        {
          "internalType": "string",
          "name": "_builderName",
          "type": "string"
        },
        {
          "internalType": "string",
          "name": "_builderBio",
          "type": "string"
        },
        {
          "internalType": "string",
          "name": "_socialHandle",
          "type": "string"
        }
      ],
      "name": "submitProject",
      "outputs": [],
      "stateMutability": "payable",
      "type": "function"
    },
    {
      "inputs": [
        {
          "internalType": "uint256",
          "name": "_projectId",
          "type": "uint256"
        },
        {
          "internalType": "uint8",
          "name": "_rating",
          "type": "uint8"
        },
        {
          "internalType": "string",
          "name": "_comment",
          "type": "string"
        }
      ],
      "name": "submitReview",
      "outputs": [],
      "stateMutability": "nonpayable",
      "type": "function"
    },
    {
      "inputs": [
        {
          "internalType": "address",
          "name": "newOwner",
          "type": "address"
        }
      ],
      "name": "transferOwnership",
      "outputs": [],
      "stateMutability": "nonpayable",
      "type": "function"
    },
    {
      "inputs": [
        {
          "internalType": "address",
          "name": "_builder",
          "type": "address"
        }
      ],
      "name": "verifyBuilder",
      "outputs": [],
      "stateMutability": "nonpayable",
      "type": "function"
    },
    {
      "inputs": [
        {
          "internalType": "uint256",
          "name": "_reviewId",
          "type": "uint256"
        }
      ],
      "name": "voteHelpful",
      "outputs": [],
      "stateMutability": "nonpayable",
      "type": "function"
    },
    {
      "inputs": [],
      "name": "withdraw",
      "outputs": [],
      "stateMutability": "nonpayable",
      "type": "function"
    },
    {
      "stateMutability": "payable",
      "type": "receive"
    }
  ],
  "bytecode": "0x6080604052600160025560016003553480156200001b57600080fd5b506200003c620000306200004960201b60201c565b6200005160201b60201c565b6001808190555062000115565b600033905090565b60008060009054906101000a900473ffffffffffffffffffffffffffffffffffffffff169050816000806101000a81548173ffffffffffffffffffffffffffffffffffffffff021916908373ffffffffffffffffffffffffffffffffffffffff1602179055508173ffffffffffffffffffffffffffffffffffffffff168173ffffffffffffffffffffffffffffffffffffffff167f8be0079c531659141344cd1fd0a4f28419497f9722a3daafe3b4186f6b6457e060405160405180910390a35050565b61428280620001256000396000f3fe6080604052600436106101d15760003560e01c80637c201167116100f7578063953eb28f11610095578063ed832af411610064578063ed832af4146106c0578063f0f3f2c8146106fd578063f2fde38b1461073b578063fa95bbbf14610764576101d8565b8063953eb28f146105d9578063bdb1e3f214610616578063d9e5d08e14610653578063e83ddcea1461067c576101d8565b8063812739a2116100d1578063812739a21461052f5780638456cb591461055a5780638da5cb5b1461057157806393b1523a1461059c576101d8565b80637c201167146104b05780637d48536d146104d957806380d0382914610504576101d8565b8063309578ff1161016f578063648dfb5e1161013e578063648dfb5e1461042b578063715018a61461044757806374a5b6931461045e57806379ac030914610487576101d8565b8063309578ff1461037157806337f94c82146103ae5780633ccfd60b146103eb578063436e695814610402576101d8565b80631d2ca537116101ab5780631d2ca537146102a357806325f60082146102e05780632e4efe951461030b5780632fd8030b14610348576101d8565b806303a090e4146101dd578063107046bd1461021a578063144ddefc14610261576101d8565b366101d857005b600080fd5b3480156101e957600080fd5b5061020460048036038101906101ff9190612b83565b61078f565b6040516102119190612c6e565b60405180910390f35b34801561022657600080fd5b50610241600480360381019061023c9190612b83565b6107fa565b6040516102589b9a99989796959493929190612d8b565b60405180910390f35b34801561026d57600080fd5b5061028860048036038101906102839190612e85565b610b29565b60405161029a96959493929190612eb2565b60405180910390f35b3480156102af57600080fd5b506102ca60048036038101906102c59190612f28565b610d2a565b6040516102d79190612f68565b60405180910390f35b3480156102ec57600080fd5b506102f5610d59565b6040516103029190612f83565b60405180910390f35b34801561031757600080fd5b50610332600480360381019061032d91906130d3565b610d6f565b60405161033f9190612c6e565b60405180910390f35b34801561035457600080fd5b5061036f600480360381019061036a9190612b83565b610de5565b005b34801561037d57600080fd5b5061039860048036038101906103939190612f28565b610e1f565b6040516103a59190612f68565b60405180910390f35b3480156103ba57600080fd5b506103d560048036038101906103d09190612b83565b610e4e565b6040516103e29190612c6e565b60405180910390f35b3480156103f757600080fd5b506104006110e7565b005b34801561040e57600080fd5b5061042960048036038101906104249190612b83565b611188565b005b6104456004803603810190610440919061311c565b6111c2565b005b34801561045357600080fd5b5061045c611848565b005b34801561046a57600080fd5b50610485600480360381019061048091906132eb565b61185c565b005b34801561049357600080fd5b506104ae60048036038101906104a99190612e85565b611daa565b005b3480156104bc57600080fd5b506104d760048036038101906104d29190612b83565b611e53565b005b3480156104e557600080fd5b506104ee611eee565b6040516104fb9190612f83565b60405180910390f35b34801561051057600080fd5b50610519611ef9565b6040516105269190612c6e565b60405180910390f35b34801561053b57600080fd5b50610544611f51565b6040516105519190612f83565b60405180910390f35b34801561056657600080fd5b5061056f611f5e565b005b34801561057d57600080fd5b50610586611f68565b604051610593919061335a565b60405180910390f35b3480156105a857600080fd5b506105c360048036038101906105be9190613375565b611f91565b6040516105d09190612f83565b60405180910390f35b3480156105e557600080fd5b5061060060048036038101906105fb9190612b83565b611fc2565b60405161060d9190612f83565b60405180910390f35b34801561062257600080fd5b5061063d60048036038101906106389190612e85565b611fe6565b60405161064a9190612c6e565b60405180910390f35b34801561065f57600080fd5b5061067a60048036038101906106759190612b83565b612080565b005b34801561068857600080fd5b506106a3600480360381019061069e9190612b83565b612301565b6040516106b79897969594939291906133c4565b60405180910390f35b3480156106cc57600080fd5b506106e760048036038101906106e29190613449565b61240b565b6040516106f49190612f83565b60405180910390f35b34801561070957600080fd5b50610724600480360381019061071f9190612b83565b612452565b604051610732929190613618565b60405180910390f35b34801561074757600080fd5b50610762600480360381019061075d9190612e85565b61282e565b005b34801561077057600080fd5b506107796128b1565b6040516107869190612f83565b60405180910390f35b6060600760008381526020019081526020016000208054806020026020016040519081016040528092919081815260200182805480156107ee57602002820191906000526020600020905b8154815260200190600101908083116107da575b50505050509050919050565b600460205280600052604060002060009150905080600001549080600101805461082390613677565b80601f016020809104026020016040519081016040528092919081815260200182805461084f90613677565b801561089c5780601f106108715761010080835404028352916020019161089c565b820191906000526020600020905b81548152906001019060200180831161087f57829003601f168201915b5050505050908060020180546108b190613677565b80601f01602080910402602001604051908101604052809291908181526020018280546108dd90613677565b801561092a5780601f106108ff5761010080835404028352916020019161092a565b820191906000526020600020905b81548152906001019060200180831161090d57829003601f168201915b50505050509080600301805461093f90613677565b80601f016020809104026020016040519081016040528092919081815260200182805461096b90613677565b80156109b85780601f1061098d576101008083540402835291602001916109b8565b820191906000526020600020905b81548152906001019060200180831161099b57829003601f168201915b5050505050908060040180546109cd90613677565b80601f01602080910402602001604051908101604052809291908181526020018280546109f990613677565b8015610a465780601f10610a1b57610100808354040283529160200191610a46565b820191906000526020600020905b815481529060010190602001808311610a2957829003601f168201915b505050505090806005018054610a5b90613677565b80601f0160208091040260200160405190810160405280929190818152602001828054610a8790613677565b8015610ad45780601f10610aa957610100808354040283529160200191610ad4565b820191906000526020600020905b815481529060010190602001808311610ab757829003601f168201915b5050505050908060060160009054906101000a900473ffffffffffffffffffffffffffffffffffffffff16908060070154908060080160009054906101000a900460ff169080600901549080600a015490508b565b60066020528060005260406000206000915090508060000160009054906101000a900473ffffffffffffffffffffffffffffffffffffffff1690806001018054610b7290613677565b80601f0160208091040260200160405190810160405280929190818152602001828054610b9e90613677565b8015610beb5780601f10610bc057610100808354040283529160200191610beb565b820191906000526020600020905b815481529060010190602001808311610bce57829003601f168201915b505050505090806002018054610c0090613677565b80601f0160208091040260200160405190810160405280929190818152602001828054610c2c90613677565b8015610c795780601f10610c4e57610100808354040283529160200191610c79565b820191906000526020600020905b815481529060010190602001808311610c5c57829003601f168201915b505050505090806003018054610c8e90613677565b80601f0160208091040260200160405190810160405280929190818152602001828054610cba90613677565b8015610d075780601f10610cdc57610100808354040283529160200191610d07565b820191906000526020600020905b815481529060010190602001808311610cea57829003601f168201915b5050505050908060050154908060060160009054906101000a900460ff16905086565b60096020528160005260406000206020528060005260406000206000915091509054906101000a900460ff1681565b60006001600354610d6a91906136d7565b905090565b6060600b82604051610d819190613747565b9081526020016040518091039020805480602002602001604051908101604052809291908181526020018280548015610dd957602002820191906000526020600020905b815481526020019060010190808311610dc5575b50505050509050919050565b610ded6128bb565b60006005600083815260200190815260200160002060060160006101000a81548160ff02191690831515021790555050565b60086020528160005260406000206020528060005260406000206000915091509054906101000a900460ff1681565b60606000600a805480602002602001604051908101604052809291908181526020018280548015610e9e57602002820191906000526020600020905b815481526020019060010190808311610e8a575b50505050509050600083825111610eb6578151610eb8565b835b90508067ffffffffffffffff811115610ed457610ed3612fa8565b5b604051908082528060200260200182016040528015610f025781602001602082028036833780820191505090505b50925060005b818110156110df5760008060005b855181101561101257600060046000888481518110610f3857610f3761375e565b5b60200260200101518152602001908152602001600020600a01541115610fff57600060046000888481518110610f7157610f7061375e565b5b60200260200101518152602001908152602001600020600a01546064600460008a8681518110610fa457610fa361375e565b5b6020026020010151815260200190815260200160002060090154610fc8919061378d565b610fd291906137fe565b905082811115610ffd57809250868281518110610ff257610ff161375e565b5b602002602001015193505b505b808061100a9061382f565b915050610f16565b5060008211156110ca57818684815181106110305761102f61375e565b5b60200260200101818152505060005b85518110156110c8578286828151811061105c5761105b61375e565b5b6020026020010151036110b557856001875161107891906136d7565b815181106110895761108861375e565b5b60200260200101518682815181106110a4576110a361375e565b5b6020026020010181815250506110c8565b80806110c09061382f565b91505061103f565b505b505080806110d79061382f565b915050610f08565b505050919050565b6110ef6128bb565b600047905060008111611137576040517f08c379a000000000000000000000000000000000000000000000000000000000815260040161112e906138c3565b60405180910390fd5b61113f611f68565b73ffffffffffffffffffffffffffffffffffffffff166108fc829081150290604051600060405180830381858888f19350505050158015611184573d6000803e3d6000fd5b5050565b6111906128bb565b60006004600083815260200190815260200160002060080160006101000a81548160ff02191690831515021790555050565b6111ca612939565b66038d7ea4c68000341015611214576040517f08c379a000000000000000000000000000000000000000000000000000000000815260040161120b9061392f565b60405180910390fd5b6000885111611258576040517f08c379a000000000000000000000000000000000000000000000000000000000815260040161124f9061399b565b60405180910390fd5b600087511161129c576040517f08c379a000000000000000000000000000000000000000000000000000000000815260040161129390613a07565b60405180910390fd5b60008551116112e0576040517f08c379a00000000000000000000000000000000000000000000000000000000081526004016112d790613a73565b60405180910390fd5b6000600260008154809291906112f59061382f565b9190505590506040518061016001604052808281526020018a81526020018981526020018881526020018781526020018681526020013373ffffffffffffffffffffffffffffffffffffffff168152602001428152602001600115158152602001600081526020016000815250600460008381526020019081526020016000206000820151816000015560208201518160010190816113949190613c3f565b5060408201518160020190816113aa9190613c3f565b5060608201518160030190816113c09190613c3f565b5060808201518160040190816113d69190613c3f565b5060a08201518160050190816113ec9190613c3f565b5060c08201518160060160006101000a81548173ffffffffffffffffffffffffffffffffffffffff021916908373ffffffffffffffffffffffffffffffffffffffff16021790555060e082015181600701556101008201518160080160006101000a81548160ff021916908315150217905550610120820151816009015561014082015181600a0155905050600073ffffffffffffffffffffffffffffffffffffffff16600660003373ffffffffffffffffffffffffffffffffffffffff1673ffffffffffffffffffffffffffffffffffffffff16815260200190815260200160002060000160009054906101000a900473ffffffffffffffffffffffffffffffffffffffff1673ffffffffffffffffffffffffffffffffffffffff16036116b7576040518060e001604052803373ffffffffffffffffffffffffffffffffffffffff168152602001858152602001848152602001838152602001600067ffffffffffffffff81111561156257611561612fa8565b5b6040519080825280602002602001820160405280156115905781602001602082028036833780820191505090505b5081526020016000815260200160001515815250600660003373ffffffffffffffffffffffffffffffffffffffff1673ffffffffffffffffffffffffffffffffffffffff16815260200190815260200160002060008201518160000160006101000a81548173ffffffffffffffffffffffffffffffffffffffff021916908373ffffffffffffffffffffffffffffffffffffffff160217905550602082015181600101908161163f9190613c3f565b5060408201518160020190816116559190613c3f565b50606082015181600301908161166b9190613c3f565b506080820151816004019080519060200190611688929190612a5d565b5060a0820151816005015560c08201518160060160006101000a81548160ff0219169083151502179055509050505b600660003373ffffffffffffffffffffffffffffffffffffffff1673ffffffffffffffffffffffffffffffffffffffff168152602001908152602001600020600401819080600181540180825580915050600190039060005260206000200160009091909190915055600660003373ffffffffffffffffffffffffffffffffffffffff1673ffffffffffffffffffffffffffffffffffffffff16815260200190815260200160002060050160008154809291906117739061382f565b9190505550600a819080600181540180825580915050600190039060005260206000200160009091909190915055600b876040516117b19190613747565b90815260200160405180910390208190806001815401808255809150506001900390600052602060002001600090919091909150553373ffffffffffffffffffffffffffffffffffffffff16817f55da7e5e16004f5167a21b509f0d75bc212d7aa3f01efa5536d3aeaae0c849b38b60405161182d9190613d11565b60405180910390a35061183e612988565b5050505050505050565b6118506128bb565b61185a6000612991565b565b611864612939565b60018260ff161015801561187c575060058260ff1611155b6118bb576040517f08c379a00000000000000000000000000000000000000000000000000000000081526004016118b290613d7f565b60405180910390fd5b6004600084815260200190815260200160002060080160009054906101000a900460ff1661191e576040517f08c379a000000000000000000000000000000000000000000000000000000000815260040161191590613deb565b60405180910390fd5b600860003373ffffffffffffffffffffffffffffffffffffffff1673ffffffffffffffffffffffffffffffffffffffff168152602001908152602001600020600084815260200190815260200160002060009054906101000a900460ff16156119bc576040517f08c379a00000000000000000000000000000000000000000000000000000000081526004016119b390613e57565b60405180910390fd5b3373ffffffffffffffffffffffffffffffffffffffff166004600085815260200190815260200160002060060160009054906101000a900473ffffffffffffffffffffffffffffffffffffffff1673ffffffffffffffffffffffffffffffffffffffff1603611a60576040517f08c379a0000000000000000000000000000000000000000000000000000000008152600401611a5790613ec3565b60405180910390fd5b600a815111611aa4576040517f08c379a0000000000000000000000000000000000000000000000000000000008152600401611a9b90613f2f565b60405180910390fd5b600060036000815480929190611ab99061382f565b9190505590506040518061010001604052808281526020018581526020013373ffffffffffffffffffffffffffffffffffffffff1681526020018460ff168152602001838152602001428152602001600081526020016001151581525060056000838152602001908152602001600020600082015181600001556020820151816001015560408201518160020160006101000a81548173ffffffffffffffffffffffffffffffffffffffff021916908373ffffffffffffffffffffffffffffffffffffffff16021790555060608201518160020160146101000a81548160ff021916908360ff1602179055506080820151816003019081611bba9190613c3f565b5060a0820151816004015560c0820151816005015560e08201518160060160006101000a81548160ff0219169083151502179055509050508260ff16600460008681526020019081526020016000206009016000828254611c1b9190613f4f565b9250508190555060046000858152602001908152602001600020600a016000815480929190611c499061382f565b9190505550600760008581526020019081526020016000208190806001815401808255809150506001900390600052602060002001600090919091909150556001600860003373ffffffffffffffffffffffffffffffffffffffff1673ffffffffffffffffffffffffffffffffffffffff168152602001908152602001600020600086815260200190815260200160002060006101000a81548160ff021916908315150217905550655af3107a40004710611d4c573373ffffffffffffffffffffffffffffffffffffffff166108fc655af3107a40009081150290604051600060405180830381858888f19350505050158015611d4a573d6000803e3d6000fd5b505b3373ffffffffffffffffffffffffffffffffffffffff1684827f4ae86de25f4301aa624f5a23d95921e137ccc490ef198db5f1489648108e628986604051611d949190613f83565b60405180910390a450611da5612988565b505050565b611db26128bb565b6001600660008373ffffffffffffffffffffffffffffffffffffffff1673ffffffffffffffffffffffffffffffffffffffff16815260200190815260200160002060060160006101000a81548160ff0219169083151502179055508073ffffffffffffffffffffffffffffffffffffffff167f4018ab20724f5452d7c99c4ee4a88525b18aa8d8aafdbfc1a61d5ddc59f3b16860405160405180910390a250565b611e5b6128bb565b6004600082815260200190815260200160002060080160009054906101000a900460ff16611ebe576040517f08c379a0000000000000000000000000000000000000000000000000000000008152600401611eb590613deb565b60405180910390fd5b807f70c57335b66544e1feb94da9e52c196cd5edf1674cba292445f2dee62376d87d60405160405180910390a250565b66038d7ea4c6800081565b6060600a805480602002602001604051908101604052809291908181526020018280548015611f4757602002820191906000526020600020905b815481526020019060010190808311611f33575b5050505050905090565b6000600a80549050905090565b611f666128bb565b565b60008060009054906101000a900473ffffffffffffffffffffffffffffffffffffffff16905090565b60076020528160005260406000208181548110611fad57600080fd5b90600052602060002001600091509150505481565b600a8181548110611fd257600080fd5b906000526020600020016000915090505481565b6060600660008373ffffffffffffffffffffffffffffffffffffffff1673ffffffffffffffffffffffffffffffffffffffff16815260200190815260200160002060040180548060200260200160405190810160405280929190818152602001828054801561207457602002820191906000526020600020905b815481526020019060010190808311612060575b50505050509050919050565b6005600082815260200190815260200160002060060160009054906101000a900460ff166120e3576040517f08c379a00000000000000000000000000000000000000000000000000000000081526004016120da90613fea565b60405180910390fd5b600960003373ffffffffffffffffffffffffffffffffffffffff1673ffffffffffffffffffffffffffffffffffffffff168152602001908152602001600020600082815260200190815260200160002060009054906101000a900460ff1615612181576040517f08c379a000000000000000000000000000000000000000000000000000000000815260040161217890614056565b60405180910390fd5b3373ffffffffffffffffffffffffffffffffffffffff166005600083815260200190815260200160002060020160009054906101000a900473ffffffffffffffffffffffffffffffffffffffff1673ffffffffffffffffffffffffffffffffffffffff1603612225576040517f08c379a000000000000000000000000000000000000000000000000000000000815260040161221c906140c2565b60405180910390fd5b60056000828152602001908152602001600020600501600081548092919061224c9061382f565b91905055506001600960003373ffffffffffffffffffffffffffffffffffffffff1673ffffffffffffffffffffffffffffffffffffffff168152602001908152602001600020600083815260200190815260200160002060006101000a81548160ff0219169083151502179055503373ffffffffffffffffffffffffffffffffffffffff16817f7f74b358091ad0ec2aa4cd4784749a97f01c8c20d51a88364d9dda7671ad127660405160405180910390a350565b60056020528060005260406000206000915090508060000154908060010154908060020160009054906101000a900473ffffffffffffffffffffffffffffffffffffffff16908060020160149054906101000a900460ff169080600301805461236990613677565b80601f016020809104026020016040519081016040528092919081815260200182805461239590613677565b80156123e25780601f106123b7576101008083540402835291602001916123e2565b820191906000526020600020905b8154815290600101906020018083116123c557829003601f168201915b5050505050908060040154908060050154908060060160009054906101000a900460ff16905088565b600b82805160208101820180518482526020830160208501208183528095505050505050818154811061243d57600080fd5b90600052602060002001600091509150505481565b61245a612aaa565b600060046000848152602001908152602001600020604051806101600160405290816000820154815260200160018201805461249590613677565b80601f01602080910402602001604051908101604052809291908181526020018280546124c190613677565b801561250e5780601f106124e35761010080835404028352916020019161250e565b820191906000526020600020905b8154815290600101906020018083116124f157829003601f168201915b5050505050815260200160028201805461252790613677565b80601f016020809104026020016040519081016040528092919081815260200182805461255390613677565b80156125a05780601f10612575576101008083540402835291602001916125a0565b820191906000526020600020905b81548152906001019060200180831161258357829003601f168201915b505050505081526020016003820180546125b990613677565b80601f01602080910402602001604051908101604052809291908181526020018280546125e590613677565b80156126325780601f1061260757610100808354040283529160200191612632565b820191906000526020600020905b81548152906001019060200180831161261557829003601f168201915b5050505050815260200160048201805461264b90613677565b80601f016020809104026020016040519081016040528092919081815260200182805461267790613677565b80156126c45780601f10612699576101008083540402835291602001916126c4565b820191906000526020600020905b8154815290600101906020018083116126a757829003601f168201915b505050505081526020016005820180546126dd90613677565b80601f016020809104026020016040519081016040528092919081815260200182805461270990613677565b80156127565780601f1061272b57610100808354040283529160200191612756565b820191906000526020600020905b81548152906001019060200180831161273957829003601f168201915b505050505081526020016006820160009054906101000a900473ffffffffffffffffffffffffffffffffffffffff1673ffffffffffffffffffffffffffffffffffffffff1673ffffffffffffffffffffffffffffffffffffffff168152602001600782015481526020016008820160009054906101000a900460ff1615151515815260200160098201548152602001600a820154815250509150600082610140015111612804576000612827565b816101400151606483610120015161281c919061378d565b61282691906137fe565b5b9050915091565b6128366128bb565b600073ffffffffffffffffffffffffffffffffffffffff168173ffffffffffffffffffffffffffffffffffffffff16036128a5576040517f08c379a000000000000000000000000000000000000000000000000000000000815260040161289c90614154565b60405180910390fd5b6128ae81612991565b50565b655af3107a400081565b6128c3612a55565b73ffffffffffffffffffffffffffffffffffffffff166128e1611f68565b73ffffffffffffffffffffffffffffffffffffffff1614612937576040517f08c379a000000000000000000000000000000000000000000000000000000000815260040161292e906141c0565b60405180910390fd5b565b60026001540361297e576040517f08c379a00000000000000000000000000000000000000000000000000000000081526004016129759061422c565b60405180910390fd5b6002600181905550565b60018081905550565b60008060009054906101000a900473ffffffffffffffffffffffffffffffffffffffff169050816000806101000a81548173ffffffffffffffffffffffffffffffffffffffff021916908373ffffffffffffffffffffffffffffffffffffffff1602179055508173ffffffffffffffffffffffffffffffffffffffff168173ffffffffffffffffffffffffffffffffffffffff167f8be0079c531659141344cd1fd0a4f28419497f9722a3daafe3b4186f6b6457e060405160405180910390a35050565b600033905090565b828054828255906000526020600020908101928215612a99579160200282015b82811115612a98578251825591602001919060010190612a7d565b5b509050612aa69190612b1c565b5090565b604051806101600160405280600081526020016060815260200160608152602001606081526020016060815260200160608152602001600073ffffffffffffffffffffffffffffffffffffffff1681526020016000815260200160001515815260200160008152602001600081525090565b5b80821115612b35576000816000905550600101612b1d565b5090565b6000604051905090565b600080fd5b600080fd5b6000819050919050565b612b6081612b4d565b8114612b6b57600080fd5b50565b600081359050612b7d81612b57565b92915050565b600060208284031215612b9957612b98612b43565b5b6000612ba784828501612b6e565b91505092915050565b600081519050919050565b600082825260208201905092915050565b6000819050602082019050919050565b612be581612b4d565b82525050565b6000612bf78383612bdc565b60208301905092915050565b6000602082019050919050565b6000612c1b82612bb0565b612c258185612bbb565b9350612c3083612bcc565b8060005b83811015612c61578151612c488882612beb565b9750612c5383612c03565b925050600181019050612c34565b5085935050505092915050565b60006020820190508181036000830152612c888184612c10565b905092915050565b612c9981612b4d565b82525050565b600081519050919050565b600082825260208201905092915050565b60005b83811015612cd9578082015181840152602081019050612cbe565b60008484015250505050565b6000601f19601f8301169050919050565b6000612d0182612c9f565b612d0b8185612caa565b9350612d1b818560208601612cbb565b612d2481612ce5565b840191505092915050565b600073ffffffffffffffffffffffffffffffffffffffff82169050919050565b6000612d5a82612d2f565b9050919050565b612d6a81612d4f565b82525050565b60008115159050919050565b612d8581612d70565b82525050565b600061016082019050612da1600083018e612c90565b8181036020830152612db3818d612cf6565b90508181036040830152612dc7818c612cf6565b90508181036060830152612ddb818b612cf6565b90508181036080830152612def818a612cf6565b905081810360a0830152612e038189612cf6565b9050612e1260c0830188612d61565b612e1f60e0830187612c90565b612e2d610100830186612d7c565b612e3b610120830185612c90565b612e49610140830184612c90565b9c9b505050505050505050505050565b612e6281612d4f565b8114612e6d57600080fd5b50565b600081359050612e7f81612e59565b92915050565b600060208284031215612e9b57612e9a612b43565b5b6000612ea984828501612e70565b91505092915050565b600060c082019050612ec76000830189612d61565b8181036020830152612ed98188612cf6565b90508181036040830152612eed8187612cf6565b90508181036060830152612f018186612cf6565b9050612f106080830185612c90565b612f1d60a0830184612d7c565b979650505050505050565b60008060408385031215612f3f57612f3e612b43565b5b6000612f4d85828601612e70565b9250506020612f5e85828601612b6e565b9150509250929050565b6000602082019050612f7d6000830184612d7c565b92915050565b6000602082019050612f986000830184612c90565b92915050565b600080fd5b600080fd5b7f4e487b7100000000000000000000000000000000000000000000000000000000600052604160045260246000fd5b612fe082612ce5565b810181811067ffffffffffffffff82111715612fff57612ffe612fa8565b5b80604052505050565b6000613012612b39565b905061301e8282612fd7565b919050565b600067ffffffffffffffff82111561303e5761303d612fa8565b5b61304782612ce5565b9050602081019050919050565b82818337600083830152505050565b600061307661307184613023565b613008565b90508281526020810184848401111561309257613091612fa3565b5b61309d848285613054565b509392505050565b600082601f8301126130ba576130b9612f9e565b5b81356130ca848260208601613063565b91505092915050565b6000602082840312156130e9576130e8612b43565b5b600082013567ffffffffffffffff81111561310757613106612b48565b5b613113848285016130a5565b91505092915050565b600080600080600080600080610100898b03121561313d5761313c612b43565b5b600089013567ffffffffffffffff81111561315b5761315a612b48565b5b6131678b828c016130a5565b985050602089013567ffffffffffffffff81111561318857613187612b48565b5b6131948b828c016130a5565b975050604089013567ffffffffffffffff8111156131b5576131b4612b48565b5b6131c18b828c016130a5565b965050606089013567ffffffffffffffff8111156131e2576131e1612b48565b5b6131ee8b828c016130a5565b955050608089013567ffffffffffffffff81111561320f5761320e612b48565b5b61321b8b828c016130a5565b94505060a089013567ffffffffffffffff81111561323c5761323b612b48565b5b6132488b828c016130a5565b93505060c089013567ffffffffffffffff81111561326957613268612b48565b5b6132758b828c016130a5565b92505060e089013567ffffffffffffffff81111561329657613295612b48565b5b6132a28b828c016130a5565b9150509295985092959890939650565b600060ff82169050919050565b6132c8816132b2565b81146132d357600080fd5b50565b6000813590506132e5816132bf565b92915050565b60008060006060848603121561330457613303612b43565b5b600061331286828701612b6e565b9350506020613323868287016132d6565b925050604084013567ffffffffffffffff81111561334457613343612b48565b5b613350868287016130a5565b9150509250925092565b600060208201905061336f6000830184612d61565b92915050565b6000806040838503121561338c5761338b612b43565b5b600061339a85828601612b6e565b92505060206133ab85828601612b6e565b9150509250929050565b6133be816132b2565b82525050565b6000610100820190506133da600083018b612c90565b6133e7602083018a612c90565b6133f46040830189612d61565b61340160608301886133b5565b81810360808301526134138187612cf6565b905061342260a0830186612c90565b61342f60c0830185612c90565b61343c60e0830184612d7c565b9998505050505050505050565b600080604083850312156134605761345f612b43565b5b600083013567ffffffffffffffff81111561347e5761347d612b48565b5b61348a858286016130a5565b925050602061349b85828601612b6e565b9150509250929050565b600082825260208201905092915050565b60006134c182612c9f565b6134cb81856134a5565b93506134db818560208601612cbb565b6134e481612ce5565b840191505092915050565b6134f881612d4f565b82525050565b61350781612d70565b82525050565b6000610160830160008301516135266000860182612bdc565b506020830151848203602086015261353e82826134b6565b9150506040830151848203604086015261355882826134b6565b9150506060830151848203606086015261357282826134b6565b9150506080830151848203608086015261358c82826134b6565b91505060a083015184820360a08601526135a682826134b6565b91505060c08301516135bb60c08601826134ef565b5060e08301516135ce60e0860182612bdc565b506101008301516135e36101008601826134fe565b506101208301516135f8610120860182612bdc565b5061014083015161360d610140860182612bdc565b508091505092915050565b60006040820190508181036000830152613632818561350d565b90506136416020830184612c90565b9392505050565b7f4e487b7100000000000000000000000000000000000000000000000000000000600052602260045260246000fd5b6000600282049050600182168061368f57607f821691505b6020821081036136a2576136a1613648565b5b50919050565b7f4e487b7100000000000000000000000000000000000000000000000000000000600052601160045260246000fd5b60006136e282612b4d565b91506136ed83612b4d565b9250828203905081811115613705576137046136a8565b5b92915050565b600081905092915050565b600061372182612c9f565b61372b818561370b565b935061373b818560208601612cbb565b80840191505092915050565b60006137538284613716565b915081905092915050565b7f4e487b7100000000000000000000000000000000000000000000000000000000600052603260045260246000fd5b600061379882612b4d565b91506137a383612b4d565b92508282026137b181612b4d565b915082820484148315176137c8576137c76136a8565b5b5092915050565b7f4e487b7100000000000000000000000000000000000000000000000000000000600052601260045260246000fd5b600061380982612b4d565b915061381483612b4d565b925082613824576138236137cf565b5b828204905092915050565b600061383a82612b4d565b91507fffffffffffffffffffffffffffffffffffffffffffffffffffffffffffffffff820361386c5761386b6136a8565b5b600182019050919050565b7f4e6f2066756e647320746f207769746864726177000000000000000000000000600082015250565b60006138ad601483612caa565b91506138b882613877565b602082019050919050565b600060208201905081810360008301526138dc816138a0565b9050919050565b7f496e73756666696369656e74207375626d697373696f6e206665650000000000600082015250565b6000613919601b83612caa565b9150613924826138e3565b602082019050919050565b600060208201905081810360008301526139488161390c565b9050919050565b7f50726f6a656374206e616d652072657175697265640000000000000000000000600082015250565b6000613985601583612caa565b91506139908261394f565b602082019050919050565b600060208201905081810360008301526139b481613978565b9050919050565b7f4465736372697074696f6e207265717569726564000000000000000000000000600082015250565b60006139f1601483612caa565b91506139fc826139bb565b602082019050919050565b60006020820190508181036000830152613a20816139e4565b9050919050565b7f55524c2072657175697265640000000000000000000000000000000000000000600082015250565b6000613a5d600c83612caa565b9150613a6882613a27565b602082019050919050565b60006020820190508181036000830152613a8c81613a50565b9050919050565b60008190508160005260206000209050919050565b60006020601f8301049050919050565b600082821b905092915050565b600060088302613af57fffffffffffffffffffffffffffffffffffffffffffffffffffffffffffffffff82613ab8565b613aff8683613ab8565b95508019841693508086168417925050509392505050565b6000819050919050565b6000613b3c613b37613b3284612b4d565b613b17565b612b4d565b9050919050565b6000819050919050565b613b5683613b21565b613b6a613b6282613b43565b848454613ac5565b825550505050565b600090565b613b7f613b72565b613b8a818484613b4d565b505050565b5b81811015613bae57613ba3600082613b77565b600181019050613b90565b5050565b601f821115613bf357613bc481613a93565b613bcd84613aa8565b81016020851015613bdc578190505b613bf0613be885613aa8565b830182613b8f565b50505b505050565b600082821c905092915050565b6000613c1660001984600802613bf8565b1980831691505092915050565b6000613c2f8383613c05565b9150826002028217905092915050565b613c4882612c9f565b67ffffffffffffffff811115613c6157613c60612fa8565b5b613c6b8254613677565b613c76828285613bb2565b600060209050601f831160018114613ca95760008415613c97578287015190505b613ca18582613c23565b865550613d09565b601f198416613cb786613a93565b60005b82811015613cdf57848901518255600182019150602085019450602081019050613cba565b86831015613cfc5784890151613cf8601f891682613c05565b8355505b6001600288020188555050505b505050505050565b60006020820190508181036000830152613d2b8184612cf6565b905092915050565b7f526174696e67206d75737420626520312d350000000000000000000000000000600082015250565b6000613d69601283612caa565b9150613d7482613d33565b602082019050919050565b60006020820190508181036000830152613d9881613d5c565b9050919050565b7f50726f6a656374206e6f74206163746976650000000000000000000000000000600082015250565b6000613dd5601283612caa565b9150613de082613d9f565b602082019050919050565b60006020820190508181036000830152613e0481613dc8565b9050919050565b7f416c726561647920726576696577656420746869732070726f6a656374000000600082015250565b6000613e41601d83612caa565b9150613e4c82613e0b565b602082019050919050565b60006020820190508181036000830152613e7081613e34565b9050919050565b7f43616e6e6f7420726576696577206f776e2070726f6a65637400000000000000600082015250565b6000613ead601983612caa565b9150613eb882613e77565b602082019050919050565b60006020820190508181036000830152613edc81613ea0565b9050919050565b7f436f6d6d656e7420746f6f2073686f7274000000000000000000000000000000600082015250565b6000613f19601183612caa565b9150613f2482613ee3565b602082019050919050565b60006020820190508181036000830152613f4881613f0c565b9050919050565b6000613f5a82612b4d565b9150613f6583612b4d565b9250828201905080821115613f7d57613f7c6136a8565b5b92915050565b6000602082019050613f9860008301846133b5565b92915050565b7f526576696577206e6f7420616374697665000000000000000000000000000000600082015250565b6000613fd4601183612caa565b9150613fdf82613f9e565b602082019050919050565b6000602082019050818103600083015261400381613fc7565b9050919050565b7f416c726561647920766f74656400000000000000000000000000000000000000600082015250565b6000614040600d83612caa565b915061404b8261400a565b602082019050919050565b6000602082019050818103600083015261406f81614033565b9050919050565b7f43616e6e6f7420766f7465206f776e2072657669657700000000000000000000600082015250565b60006140ac601683612caa565b91506140b782614076565b602082019050919050565b600060208201905081810360008301526140db8161409f565b9050919050565b7f4f776e61626c653a206e6577206f776e657220697320746865207a65726f206160008201527f6464726573730000000000000000000000000000000000000000000000000000602082015250565b600061413e602683612caa565b9150614149826140e2565b604082019050919050565b6000602082019050818103600083015261416d81614131565b9050919050565b7f4f776e61626c653a2063616c6c6572206973206e6f7420746865206f776e6572600082015250565b60006141aa602083612caa565b91506141b582614174565b602082019050919050565b600060208201905081810360008301526141d98161419d565b9050919050565b7f5265656e7472616e637947756172643a207265656e7472616e742063616c6c00600082015250565b6000614216601f83612caa565b9150614221826141e0565b602082019050919050565b6000602082019050818103600083015261424581614209565b905091905056fea264697066735822122036b5b0896bb274fa28efbd33ba145405b9e2941e8054471fef96bec1669ad74c64736f6c63430008140033",
  "linkReferences": {},
  "deployedLinkReferences": {}
}